{
  "_format": "hh-sol-artifact-1",
  "contractName": "CoffeePortal",
  "sourceName": "contracts/CoffeePortal.sol",
  "abi": [
    {
      "inputs": [],
      "stateMutability": "payable",
      "type": "constructor"
    },
    {
      "anonymous": false,
      "inputs": [
        {
          "indexed": true,
          "internalType": "address",
          "name": "from",
          "type": "address"
        },
        {
          "indexed": false,
          "internalType": "uint256",
          "name": "timestamp",
          "type": "uint256"
        },
        {
          "indexed": false,
          "internalType": "string",
          "name": "message",
          "type": "string"
        },
        {
          "indexed": false,
          "internalType": "string",
          "name": "name",
          "type": "string"
        }
      ],
      "name": "NewCoffee",
      "type": "event"
    },
    {
      "inputs": [
        {
          "internalType": "string",
          "name": "_message",
          "type": "string"
        },
        {
          "internalType": "string",
          "name": "_name",
          "type": "string"
        },
        {
          "internalType": "uint256",
          "name": "_payAmount",
          "type": "uint256"
        }
      ],
      "name": "buyCoffee",
      "outputs": [],
      "stateMutability": "payable",
      "type": "function"
    },
    {
      "inputs": [],
      "name": "getAllCoffee",
      "outputs": [
        {
          "components": [
            {
              "internalType": "address",
              "name": "giver",
              "type": "address"
            },
            {
              "internalType": "string",
              "name": "message",
              "type": "string"
            },
            {
              "internalType": "string",
              "name": "name",
              "type": "string"
            },
            {
              "internalType": "uint256",
              "name": "timestamp",
              "type": "uint256"
            }
          ],
          "internalType": "struct CoffeePortal.Coffee[]",
          "name": "",
          "type": "tuple[]"
        }
      ],
      "stateMutability": "view",
      "type": "function"
    },
    {
      "inputs": [],
      "name": "getTotalCoffee",
      "outputs": [
        {
          "internalType": "uint256",
          "name": "",
          "type": "uint256"
        }
      ],
      "stateMutability": "view",
      "type": "function"
    },
    {
      "inputs": [],
      "name": "owner",
      "outputs": [
        {
          "internalType": "address payable",
          "name": "",
          "type": "address"
        }
      ],
      "stateMutability": "view",
      "type": "function"
    }
  ],
  "bytecode": "0x60806040526200004f6040518060400160405280601281526020017f596f2120536d61727420436f6e747261637400000000000000000000000000008152506200009660201b620005f21760201c565b33600160006101000a81548173ffffffffffffffffffffffffffffffffffffffff021916908373ffffffffffffffffffffffffffffffffffffffff1602179055506200028e565b6200013681604051602401620000ad919062000207565b6040516020818303038152906040527f41304fac000000000000000000000000000000000000000000000000000000007bffffffffffffffffffffffffffffffffffffffffffffffffffffffff19166020820180517bffffffffffffffffffffffffffffffffffffffffffffffffffffffff83818316178352505050506200013960201b60201c565b50565b6200015f816200015a6200016260201b6200068b176200018360201b60201c565b60201c565b50565b60006a636f6e736f6c652e6c6f679050600080835160208501845afa505050565b6200019760201b6200080917819050919050565b7f4e487b7100000000000000000000000000000000000000000000000000000000600052605160045260246000fd5b6000620001d3826200022b565b620001df818562000236565b9350620001f181856020860162000247565b620001fc816200027d565b840191505092915050565b60006020820190508181036000830152620002238184620001c6565b905092915050565b600081519050919050565b600082825260208201905092915050565b60005b83811015620002675780820151818401526020810190506200024a565b8381111562000277576000848401525b50505050565b6000601f19601f8301169050919050565b6110b4806200029e6000396000f3fe60806040526004361061003f5760003560e01c8063441315c5146100445780634839ee3f146100605780638da5cb5b1461008b578063d386beca146100b6575b600080fd5b61005e60048036038101906100599190610958565b6100e1565b005b34801561006c57600080fd5b5061007561039e565b6040516100829190610d04565b60405180910390f35b34801561009757600080fd5b506100a06103e9565b6040516100ad9190610c05565b60405180910390f35b3480156100c257600080fd5b506100cb61040f565b6040516100d89190610c20565b60405180910390f35b600066038d7ea4c68000905080821115610130576040517f08c379a000000000000000000000000000000000000000000000000000000000815260040161012790610cc4565b60405180910390fd5b60016000808282546101429190610e2b565b925050819055506101886040518060400160405280601a81526020017f257320686173206a7573742073656e74206120636f6666656521000000000000815250336106ac565b600260405180608001604052803373ffffffffffffffffffffffffffffffffffffffff16815260200186815260200185815260200142815250908060018154018082558091505060019003906000526020600020906004020160009091909190915060008201518160000160006101000a81548173ffffffffffffffffffffffffffffffffffffffff021916908373ffffffffffffffffffffffffffffffffffffffff160217905550602082015181600101908051906020019061024d929190610838565b50604082015181600201908051906020019061026a929190610838565b506060820151816003015550506000600160009054906101000a900473ffffffffffffffffffffffffffffffffffffffff1673ffffffffffffffffffffffffffffffffffffffff16836040516102bf90610bf0565b60006040518083038185875af1925050503d80600081146102fc576040519150601f19603f3d011682016040523d82523d6000602084013e610301565b606091505b5050905080610345576040517f08c379a000000000000000000000000000000000000000000000000000000000815260040161033c90610ce4565b60405180910390fd5b3373ffffffffffffffffffffffffffffffffffffffff167f5d202edb9ac9aca913189e3c829f7fdbba23859e91379c70ecf7874fe39632a742878760405161038f93929190610d1f565b60405180910390a25050505050565b60006103e16040518060400160405280602081526020017f5765206861766520256420746f74616c20636f66666565207265636965766564815250600054610748565b600054905090565b600160009054906101000a900473ffffffffffffffffffffffffffffffffffffffff1681565b60606002805480602002602001604051908101604052809291908181526020016000905b828210156105e957838290600052602060002090600402016040518060800160405290816000820160009054906101000a900473ffffffffffffffffffffffffffffffffffffffff1673ffffffffffffffffffffffffffffffffffffffff1673ffffffffffffffffffffffffffffffffffffffff1681526020016001820180546104bc90610f11565b80601f01602080910402602001604051908101604052809291908181526020018280546104e890610f11565b80156105355780601f1061050a57610100808354040283529160200191610535565b820191906000526020600020905b81548152906001019060200180831161051857829003601f168201915b5050505050815260200160028201805461054e90610f11565b80601f016020809104026020016040519081016040528092919081815260200182805461057a90610f11565b80156105c75780601f1061059c576101008083540402835291602001916105c7565b820191906000526020600020905b8154815290600101906020018083116105aa57829003601f168201915b5050505050815260200160038201548152505081526020019060010190610433565b50505050905090565b610688816040516024016106069190610c42565b6040516020818303038152906040527f41304fac000000000000000000000000000000000000000000000000000000007bffffffffffffffffffffffffffffffffffffffffffffffffffffffff19166020820180517bffffffffffffffffffffffffffffffffffffffffffffffffffffffff83818316178352505050506107e4565b50565b60006a636f6e736f6c652e6c6f679050600080835160208501845afa505050565b61074482826040516024016106c2929190610c64565b6040516020818303038152906040527f319af333000000000000000000000000000000000000000000000000000000007bffffffffffffffffffffffffffffffffffffffffffffffffffffffff19166020820180517bffffffffffffffffffffffffffffffffffffffffffffffffffffffff83818316178352505050506107e4565b5050565b6107e0828260405160240161075e929190610c94565b6040516020818303038152906040527fb60e72cc000000000000000000000000000000000000000000000000000000007bffffffffffffffffffffffffffffffffffffffffffffffffffffffff19166020820180517bffffffffffffffffffffffffffffffffffffffffffffffffffffffff83818316178352505050506107e4565b5050565b6107fb816107f361068b6107fe565b63ffffffff16565b50565b610809819050919050565b7f4e487b7100000000000000000000000000000000000000000000000000000000600052605160045260246000fd5b82805461084490610f11565b90600052602060002090601f01602090048101928261086657600085556108ad565b82601f1061087f57805160ff19168380011785556108ad565b828001600101855582156108ad579182015b828111156108ac578251825591602001919060010190610891565b5b5090506108ba91906108be565b5090565b5b808211156108d75760008160009055506001016108bf565b5090565b60006108ee6108e984610d89565b610d64565b90508281526020810184848401111561090657600080fd5b610911848285610ecf565b509392505050565b600082601f83011261092a57600080fd5b813561093a8482602086016108db565b91505092915050565b60008135905061095281611067565b92915050565b60008060006060848603121561096d57600080fd5b600084013567ffffffffffffffff81111561098757600080fd5b61099386828701610919565b935050602084013567ffffffffffffffff8111156109b057600080fd5b6109bc86828701610919565b92505060406109cd86828701610943565b9150509250925092565b60006109e38383610b68565b905092915050565b6109f481610e93565b82525050565b610a0381610e81565b82525050565b610a1281610e81565b82525050565b6000610a2382610dca565b610a2d8185610ded565b935083602082028501610a3f85610dba565b8060005b85811015610a7b5784840389528151610a5c85826109d7565b9450610a6783610de0565b925060208a01995050600181019050610a43565b50829750879550505050505092915050565b6000610a9882610dd5565b610aa28185610e09565b9350610ab2818560208601610ede565b610abb81611001565b840191505092915050565b6000610ad182610dd5565b610adb8185610e1a565b9350610aeb818560208601610ede565b610af481611001565b840191505092915050565b6000610b0c601b83610e1a565b9150610b1782611012565b602082019050919050565b6000610b2f601483610e1a565b9150610b3a8261103b565b602082019050919050565b6000610b52600083610dfe565b9150610b5d82611064565b600082019050919050565b6000608083016000830151610b8060008601826109fa565b5060208301518482036020860152610b988282610a8d565b91505060408301518482036040860152610bb28282610a8d565b9150506060830151610bc76060860182610bd2565b508091505092915050565b610bdb81610ec5565b82525050565b610bea81610ec5565b82525050565b6000610bfb82610b45565b9150819050919050565b6000602082019050610c1a60008301846109eb565b92915050565b60006020820190508181036000830152610c3a8184610a18565b905092915050565b60006020820190508181036000830152610c5c8184610ac6565b905092915050565b60006040820190508181036000830152610c7e8185610ac6565b9050610c8d6020830184610a09565b9392505050565b60006040820190508181036000830152610cae8185610ac6565b9050610cbd6020830184610be1565b9392505050565b60006020820190508181036000830152610cdd81610aff565b9050919050565b60006020820190508181036000830152610cfd81610b22565b9050919050565b6000602082019050610d196000830184610be1565b92915050565b6000606082019050610d346000830186610be1565b8181036020830152610d468185610ac6565b90508181036040830152610d5a8184610ac6565b9050949350505050565b6000610d6e610d7f565b9050610d7a8282610f43565b919050565b6000604051905090565b600067ffffffffffffffff821115610da457610da3610fd2565b5b610dad82611001565b9050602081019050919050565b6000819050602082019050919050565b600081519050919050565b600081519050919050565b6000602082019050919050565b600082825260208201905092915050565b600081905092915050565b600082825260208201905092915050565b600082825260208201905092915050565b6000610e3682610ec5565b9150610e4183610ec5565b9250827fffffffffffffffffffffffffffffffffffffffffffffffffffffffffffffffff03821115610e7657610e75610f74565b5b828201905092915050565b6000610e8c82610ea5565b9050919050565b6000610e9e82610ea5565b9050919050565b600073ffffffffffffffffffffffffffffffffffffffff82169050919050565b6000819050919050565b82818337600083830152505050565b60005b83811015610efc578082015181840152602081019050610ee1565b83811115610f0b576000848401525b50505050565b60006002820490506001821680610f2957607f821691505b60208210811415610f3d57610f3c610fa3565b5b50919050565b610f4c82611001565b810181811067ffffffffffffffff82111715610f6b57610f6a610fd2565b5b80604052505050565b7f4e487b7100000000000000000000000000000000000000000000000000000000600052601160045260246000fd5b7f4e487b7100000000000000000000000000000000000000000000000000000000600052602260045260246000fd5b7f4e487b7100000000000000000000000000000000000000000000000000000000600052604160045260246000fd5b6000601f19601f8301169050919050565b7f496e73756666696369656e742045746865722070726f76696465640000000000600082015250565b7f4661696c656420746f2073656e64206d6f6e6579000000000000000000000000600082015250565b50565b61107081610ec5565b811461107b57600080fd5b5056fea2646970667358221220b41869daafd8e17fde73f16e4b893b2c530174c447221f6e6e0c1de08ae6a78764736f6c63430008040033",
  "linkReferences": {},
  "deployedLinkReferences": {}
}